{
  "contractName": "FlashSwap",
  "abi": [
    {
      "inputs": [
        {
          "internalType": "address",
          "name": "pancakeFactory",
          "type": "address"
        },
        {
          "internalType": "address",
          "name": "apeFactory",
          "type": "address"
        },
        {
          "internalType": "address",
          "name": "wethAddress",
          "type": "address"
        },
        {
          "internalType": "address",
          "name": "apeRouter",
          "type": "address"
        },
        {
          "internalType": "address",
          "name": "pancakeRouter",
          "type": "address"
        },
        {
          "internalType": "address",
          "name": "beneficiaryAddress",
          "type": "address"
        }
      ],
      "stateMutability": "nonpayable",
      "type": "constructor"
    },
    {
      "stateMutability": "payable",
      "type": "receive",
      "payable": true
    },
    {
      "inputs": [
        {
          "internalType": "address",
          "name": "token0",
          "type": "address"
        },
        {
          "internalType": "address",
          "name": "token1",
          "type": "address"
        },
        {
          "internalType": "uint256",
          "name": "amount0",
          "type": "uint256"
        },
        {
          "internalType": "uint256",
          "name": "amount1",
          "type": "uint256"
        },
        {
          "internalType": "address",
          "name": "startFactory",
          "type": "address"
        },
        {
          "internalType": "address",
          "name": "endRouterAddress",
          "type": "address"
        },
        {
          "internalType": "uint256",
          "name": "repay",
          "type": "uint256"
        }
      ],
      "name": "startArbitrage",
      "outputs": [],
      "stateMutability": "nonpayable",
      "type": "function"
    },
    {
      "inputs": [
        {
          "internalType": "uint256",
          "name": "amount0",
          "type": "uint256"
        },
        {
          "internalType": "uint256",
          "name": "amount1",
          "type": "uint256"
        },
        {
          "internalType": "bytes",
          "name": "data",
          "type": "bytes"
        }
      ],
      "name": "pancakeCall",
      "outputs": [],
      "stateMutability": "nonpayable",
      "type": "function"
    }
  ],
  "bytecode": "0x60a06040523480156200001157600080fd5b50604051620018d4380380620018d48339818101604052810190620000379190620001d5565b84600160006101000a81548173ffffffffffffffffffffffffffffffffffffffff021916908373ffffffffffffffffffffffffffffffffffffffff16021790555085600260006101000a81548173ffffffffffffffffffffffffffffffffffffffff021916908373ffffffffffffffffffffffffffffffffffffffff1602179055508373ffffffffffffffffffffffffffffffffffffffff1660808173ffffffffffffffffffffffffffffffffffffffff1660601b81525050806000806101000a81548173ffffffffffffffffffffffffffffffffffffffff021916908373ffffffffffffffffffffffffffffffffffffffff16021790555081600360006101000a81548173ffffffffffffffffffffffffffffffffffffffff021916908373ffffffffffffffffffffffffffffffffffffffff16021790555082600460006101000a81548173ffffffffffffffffffffffffffffffffffffffff021916908373ffffffffffffffffffffffffffffffffffffffff160217905550505050505050620002b9565b600081519050620001cf816200029f565b92915050565b60008060008060008060c08789031215620001ef57600080fd5b6000620001ff89828a01620001be565b96505060206200021289828a01620001be565b95505060406200022589828a01620001be565b94505060606200023889828a01620001be565b93505060806200024b89828a01620001be565b92505060a06200025e89828a01620001be565b9150509295509295509295565b600062000278826200027f565b9050919050565b600073ffffffffffffffffffffffffffffffffffffffff82169050919050565b620002aa816200026b565b8114620002b657600080fd5b50565b60805160601c6115df620002f56000398061043f528061049c52806104fd528061072052806107b55280610882528061096e52506115df6000f3fe60806040526004361061002d5760003560e01c80630271025e14610039578063f48010a11461006257610034565b3661003457005b600080fd5b34801561004557600080fd5b50610060600480360381019061005b9190610e8c565b61008b565b005b34801561006e57600080fd5b5061008960048036038101906100849190610fbd565b610226565b005b60008373ffffffffffffffffffffffffffffffffffffffff1663e6a4390589896040518363ffffffff1660e01b81526004016100c892919061120d565b60206040518083038186803b1580156100e057600080fd5b505afa1580156100f4573d6000803e3d6000fd5b505050506040513d601f19601f820116820180604052508101906101189190610e27565b9050600073ffffffffffffffffffffffffffffffffffffffff168173ffffffffffffffffffffffffffffffffffffffff16141561018a576040517f08c379a0000000000000000000000000000000000000000000000000000000008152600401610181906112ab565b60405180910390fd5b8073ffffffffffffffffffffffffffffffffffffffff1663022c0d9f87873087876040516020016101bc929190611236565b6040516020818303038152906040526040518563ffffffff1660e01b81526004016101ea9493929190611360565b600060405180830381600087803b15801561020457600080fd5b505af1158015610218573d6000803e3d6000fd5b505050505050505050505050565b6060600267ffffffffffffffff8111801561024057600080fd5b5060405190808252806020026020018201604052801561026f5781602001602082028036833780820191505090505b50905060008084848101906102849190610e50565b9150915060008060003373ffffffffffffffffffffffffffffffffffffffff16630dfe16816040518163ffffffff1660e01b815260040160206040518083038186803b1580156102d357600080fd5b505afa1580156102e7573d6000803e3d6000fd5b505050506040513d601f19601f8201168201806040525081019061030b9190610e27565b905060003373ffffffffffffffffffffffffffffffffffffffff1663d21220a76040518163ffffffff1660e01b815260040160206040518083038186803b15801561035557600080fd5b505afa158015610369573d6000803e3d6000fd5b505050506040513d601f19601f8201168201806040525081019061038d9190610e27565b905060008b1461039d578161039f565b805b876000815181106103ac57fe5b602002602001019073ffffffffffffffffffffffffffffffffffffffff16908173ffffffffffffffffffffffffffffffffffffffff168152505060008b146103f457806103f6565b815b8760018151811061040357fe5b602002602001019073ffffffffffffffffffffffffffffffffffffffff16908173ffffffffffffffffffffffffffffffffffffffff16815250507f000000000000000000000000000000000000000000000000000000000000000073ffffffffffffffffffffffffffffffffffffffff168273ffffffffffffffffffffffffffffffffffffffff1614610496578a610498565b895b93507f000000000000000000000000000000000000000000000000000000000000000073ffffffffffffffffffffffffffffffffffffffff168273ffffffffffffffffffffffffffffffffffffffff16146104f357896104f5565b8a5b9250505060007f000000000000000000000000000000000000000000000000000000000000000073ffffffffffffffffffffffffffffffffffffffff168660008151811061053f57fe5b602002602001015173ffffffffffffffffffffffffffffffffffffffff161461057c578560008151811061056f57fe5b6020026020010151610592565b8560018151811061058957fe5b60200260200101515b9050600083111561096c578073ffffffffffffffffffffffffffffffffffffffff1663095ea7b386856040518363ffffffff1660e01b81526004016105d8929190611236565b602060405180830381600087803b1580156105f257600080fd5b505af1158015610606573d6000803e3d6000fd5b505050506040513d601f19601f8201168201806040525081019061062a9190610f6b565b5060608573ffffffffffffffffffffffffffffffffffffffff166318cbafe58560008a30426040518663ffffffff1660e01b815260040161066f959493929190611306565b600060405180830381600087803b15801561068957600080fd5b505af115801561069d573d6000803e3d6000fd5b505050506040513d6000823e3d601f19601f820116820180604052508101906106c69190610f2a565b905084816001815181106106d657fe5b60200260200101511161071e576040517f08c379a0000000000000000000000000000000000000000000000000000000008152600401610715906112cb565b60405180910390fd5b7f000000000000000000000000000000000000000000000000000000000000000073ffffffffffffffffffffffffffffffffffffffff1663d0e30db08260018151811061076757fe5b60200260200101516040518263ffffffff1660e01b81526004016000604051808303818588803b15801561079a57600080fd5b505af11580156107ae573d6000803e3d6000fd5b50505050507f000000000000000000000000000000000000000000000000000000000000000073ffffffffffffffffffffffffffffffffffffffff1663a9059cbb33876040518363ffffffff1660e01b815260040161080e9291906111e4565b602060405180830381600087803b15801561082857600080fd5b505af115801561083c573d6000803e3d6000fd5b505050506040513d601f19601f820116820180604052508101906108609190610f6b565b506000858260018151811061087157fe5b6020026020010151031115610966577f000000000000000000000000000000000000000000000000000000000000000073ffffffffffffffffffffffffffffffffffffffff1663a9059cbb6000809054906101000a900473ffffffffffffffffffffffffffffffffffffffff1687846001815181106108ec57fe5b6020026020010151036040518363ffffffff1660e01b8152600401610912929190611236565b602060405180830381600087803b15801561092c57600080fd5b505af1158015610940573d6000803e3d6000fd5b505050506040513d601f19601f820116820180604052508101906109649190610f6b565b505b50610cd0565b7f000000000000000000000000000000000000000000000000000000000000000073ffffffffffffffffffffffffffffffffffffffff16632e1a7d4d836040518263ffffffff1660e01b81526004016109c591906112eb565b600060405180830381600087803b1580156109df57600080fd5b505af11580156109f3573d6000803e3d6000fd5b5050505060608573ffffffffffffffffffffffffffffffffffffffff16637ff36ab54760008a30426040518663ffffffff1660e01b8152600401610a3a949392919061125f565b6000604051808303818588803b158015610a5357600080fd5b505af1158015610a67573d6000803e3d6000fd5b50505050506040513d6000823e3d601f19601f82011682018060405250810190610a919190610f2a565b90508481600181518110610aa157fe5b602002602001015111610ae9576040517f08c379a0000000000000000000000000000000000000000000000000000000008152600401610ae0906112cb565b60405180910390fd5b8173ffffffffffffffffffffffffffffffffffffffff1663a9059cbb33876040518363ffffffff1660e01b8152600401610b249291906111e4565b602060405180830381600087803b158015610b3e57600080fd5b505af1158015610b52573d6000803e3d6000fd5b505050506040513d601f19601f82011682018060405250810190610b769190610f6b565b5060008582600181518110610b8757fe5b6020026020010151031115610cce578173ffffffffffffffffffffffffffffffffffffffff1663a9059cbb6000809054906101000a900473ffffffffffffffffffffffffffffffffffffffff168473ffffffffffffffffffffffffffffffffffffffff166370a08231306040518263ffffffff1660e01b8152600401610c0d91906111c9565b60206040518083038186803b158015610c2557600080fd5b505afa158015610c39573d6000803e3d6000fd5b505050506040513d601f19601f82011682018060405250810190610c5d9190610f94565b6040518363ffffffff1660e01b8152600401610c7a929190611236565b602060405180830381600087803b158015610c9457600080fd5b505af1158015610ca8573d6000803e3d6000fd5b505050506040513d601f19601f82011682018060405250810190610ccc9190610f6b565b505b505b50505050505050505050565b600081359050610ceb8161154d565b92915050565b600081519050610d008161154d565b92915050565b600081359050610d1581611564565b92915050565b600082601f830112610d2c57600080fd5b8151610d3f610d3a826113d9565b6113ac565b91508181835260208401935060208101905083856020840282011115610d6457600080fd5b60005b83811015610d945781610d7a8882610e12565b845260208401935060208301925050600181019050610d67565b5050505092915050565b600081519050610dad8161157b565b92915050565b60008083601f840112610dc557600080fd5b8235905067ffffffffffffffff811115610dde57600080fd5b602083019150836001820283011115610df657600080fd5b9250929050565b600081359050610e0c81611592565b92915050565b600081519050610e2181611592565b92915050565b600060208284031215610e3957600080fd5b6000610e4784828501610cf1565b91505092915050565b60008060408385031215610e6357600080fd5b6000610e7185828601610d06565b9250506020610e8285828601610dfd565b9150509250929050565b600080600080600080600060e0888a031215610ea757600080fd5b6000610eb58a828b01610cdc565b9750506020610ec68a828b01610cdc565b9650506040610ed78a828b01610dfd565b9550506060610ee88a828b01610dfd565b9450506080610ef98a828b01610cdc565b93505060a0610f0a8a828b01610cdc565b92505060c0610f1b8a828b01610dfd565b91505092959891949750929550565b600060208284031215610f3c57600080fd5b600082015167ffffffffffffffff811115610f5657600080fd5b610f6284828501610d1b565b91505092915050565b600060208284031215610f7d57600080fd5b6000610f8b84828501610d9e565b91505092915050565b600060208284031215610fa657600080fd5b6000610fb484828501610e12565b91505092915050565b60008060008060608587031215610fd357600080fd5b6000610fe187828801610dfd565b9450506020610ff287828801610dfd565b935050604085013567ffffffffffffffff81111561100f57600080fd5b61101b87828801610db3565b925092505092959194509250565b60006110358383611050565b60208301905092915050565b61104a816114c1565b82525050565b61105981611467565b82525050565b61106881611467565b82525050565b600061107982611411565b6110838185611434565b935061108e83611401565b8060005b838110156110bf5781516110a68882611029565b97506110b183611427565b925050600181019050611092565b5085935050505092915050565b60006110d78261141c565b6110e18185611445565b93506110f1818560208601611509565b6110fa8161153c565b840191505092915050565b61110e816114d3565b82525050565b6000611121601883611456565b91507f5468697320706f6f6c20646f6573206e6f7420657869737400000000000000006000830152602082019050919050565b6000611161602783611456565b91507f4661696c656420746f2067657420656e6f7567682066726f6d2073776170207460008301527f6f207265706179000000000000000000000000000000000000000000000000006020830152604082019050919050565b6111c3816114b7565b82525050565b60006020820190506111de6000830184611041565b92915050565b60006040820190506111f96000830185611041565b61120660208301846111ba565b9392505050565b6000604082019050611222600083018561105f565b61122f602083018461105f565b9392505050565b600060408201905061124b600083018561105f565b61125860208301846111ba565b9392505050565b60006080820190506112746000830187611105565b8181036020830152611286818661106e565b90506112956040830185611041565b6112a260608301846111ba565b95945050505050565b600060208201905081810360008301526112c481611114565b9050919050565b600060208201905081810360008301526112e481611154565b9050919050565b600060208201905061130060008301846111ba565b92915050565b600060a08201905061131b60008301886111ba565b6113286020830187611105565b818103604083015261133a818661106e565b90506113496060830185611041565b61135660808301846111ba565b9695505050505050565b600060808201905061137560008301876111ba565b61138260208301866111ba565b61138f6040830185611041565b81810360608301526113a181846110cc565b905095945050505050565b6000604051905081810181811067ffffffffffffffff821117156113cf57600080fd5b8060405250919050565b600067ffffffffffffffff8211156113f057600080fd5b602082029050602081019050919050565b6000819050602082019050919050565b600081519050919050565b600081519050919050565b6000602082019050919050565b600082825260208201905092915050565b600082825260208201905092915050565b600082825260208201905092915050565b600061147282611497565b9050919050565b600061148482611497565b9050919050565b60008115159050919050565b600073ffffffffffffffffffffffffffffffffffffffff82169050919050565b6000819050919050565b60006114cc826114e5565b9050919050565b60006114de826114b7565b9050919050565b60006114f0826114f7565b9050919050565b600061150282611497565b9050919050565b60005b8381101561152757808201518184015260208101905061150c565b83811115611536576000848401525b50505050565b6000601f19601f8301169050919050565b61155681611467565b811461156157600080fd5b50565b61156d81611479565b811461157857600080fd5b50565b6115848161148b565b811461158f57600080fd5b50565b61159b816114b7565b81146115a657600080fd5b5056fea26469706673582212208bc49d1a45bac21ed68c535804eac825ce583e5d96aeee5e02f29bb4172f71e664736f6c63430006060033",
  "immutableReferences": {
    "12": [
      {
        "length": 32,
        "start": 1087
      },
      {
        "length": 32,
        "start": 1180
      },
      {
        "length": 32,
        "start": 1277
      },
      {
        "length": 32,
        "start": 1824
      },
      {
        "length": 32,
        "start": 1973
      },
      {
        "length": 32,
        "start": 2178
      },
      {
        "length": 32,
        "start": 2414
      }
    ]
  },
  "source": "pragma solidity =0.6.6;\r\npragma experimental ABIEncoderV2;\r\n\r\n\r\n\r\n\r\n\r\nimport './utils/SafeMath.sol';\r\nimport './UniswapV2Library.sol';\r\nimport './interfaces/IERC20.sol';\r\nimport './interfaces/IUniswapV2Pair.sol';\r\nimport './interfaces/IUniswapV2Factory.sol';\r\nimport './interfaces/IUniswapV2Router01.sol';\r\nimport './interfaces/IUniswapV2Router02.sol';\r\nimport './interfaces/IWETH.sol'; \r\n\r\n\r\ncontract FlashSwap {\r\n    IWETH immutable WETH;\r\n    address Beneficiary;\r\n    address ApeSwapFactory;\r\n    address PancakeFactory;\r\n    address PancakeRouter;\r\n    address ApeRouter;\r\n    constructor(address pancakeFactory, address apeFactory, address wethAddress , address apeRouter, address pancakeRouter, address beneficiaryAddress) public {\r\n         ApeSwapFactory = apeFactory;\r\n         PancakeFactory = pancakeFactory;\r\n         WETH = IWETH(wethAddress);\r\n         Beneficiary = beneficiaryAddress;\r\n         PancakeRouter = pancakeRouter;\r\n         ApeRouter = apeRouter; \r\n    }\r\n    \r\n    \r\n    function startArbitrage(\r\n    address token0,\r\n    address token1,\r\n    uint amount0, \r\n    uint amount1,\r\n    address startFactory,\r\n    address endRouterAddress,\r\n    uint repay\r\n  ) external {\r\n  \r\n    address pairAddress =   IUniswapV2Factory(startFactory).getPair(token0, token1);\r\n    require(pairAddress != address(0), 'This pool does not exist');\r\n    IUniswapV2Pair(pairAddress).swap(\r\n      amount0, \r\n      amount1, \r\n      address(this), \r\n      abi.encode(endRouterAddress, repay) //not empty bytes param will trigger flashloan\r\n    );\r\n  }\r\n    \r\n    receive() external payable {}\r\n\r\n function pancakeCall(uint amount0, uint amount1, bytes calldata data) external {\r\n        address[] memory path = new address[](2);\r\n       ( address endRouter, uint repay) = abi.decode(data, (address, uint));\r\n        uint amountToken;\r\n        uint amountEth;\r\n        \r\n        \r\n        // scope for token{0,1}, avoids stack too deep errors\r\n        {\r\n        address token0 = IUniswapV2Pair(msg.sender).token0();\r\n        address token1 = IUniswapV2Pair(msg.sender).token1();\r\n        path[0] = amount0 == 0 ? token1 : token0; \r\n        path[1] = amount0 == 0 ? token0 : token1; \r\n\r\n        amountToken = token0 == address(WETH) ? amount1 : amount0;    \r\n        amountEth = token0 == address(WETH) ? amount0 : amount1;\r\n\r\n        }\r\n        IERC20 token = IERC20(path[0] == address(WETH) ? path[1] : path[0]);\r\n\r\n        if (amountToken > 0) {\r\n            token.approve(endRouter, amountToken);\r\n            uint[] memory amountReceived = IUniswapV2Router02(endRouter).swapExactTokensForETH(amountToken, 0, path,address(this),now);\r\n            require(amountReceived[1] > repay, \"Failed to get enough from swap to repay\"); \r\n            WETH.deposit{value: amountReceived[1]}();\r\n            WETH.transfer(msg.sender, repay);\r\n              if(amountReceived[1] - repay > 0) {\r\n                WETH.transfer(Beneficiary, (amountReceived[1] - repay));\r\n              }\r\n        } else {\r\n            WETH.withdraw(amountEth);\r\n            uint [] memory amountReceived = IUniswapV2Router02(endRouter).swapExactETHForTokens{value: address(this).balance}(0, path, address(this), now);\r\n            require(amountReceived[1] > repay, \"Failed to get enough from swap to repay\"); // fail if we didn't get enough tokens back to repay our flash loan\r\n            token.transfer(msg.sender, repay); // return tokens to V2 pair\r\n            if(amountReceived[1] - repay > 0) {\r\n              token.transfer(Beneficiary, token.balanceOf(address(this))); \r\n              }\r\n            \r\n        }\r\n }\r\n}\r\n\r\n",
  "sourcePath": "C:\\Users\\danie\\Desktop\\loans\\flashloanapeBUSD-DAI\\contracts\\Flashloan.sol",
  "compiler": {
    "name": "solc",
    "version": "0.6.6+commit.6c089d02.Emscripten.clang"
  },
  "schemaVersion": "3.4.5",
  "updatedAt": "2022-02-28T21:03:10.187Z",
  "networkType": "ethereum",
  "devdoc": {
    "methods": {}
  },
  "userdoc": {
    "methods": {}
  }
}